:100000000C945D000C9485000C9485000C94850084
:100010000C9485000C9485000C9485000C9485004C
:100020000C9485000C9485000C9485000C9485003C
:100030000C9485000C9485000C9485000C9485002C
:100040000C94C8000C9485000C94C6020C9409030F
:100050000C9485000C9485000C9485000C9485000C
:100060000C9485000C94850000000007000201003C
:100070000003040600000000000000000102040864
:100080001020408001020408102001020408102002
:10009000040404040404040402020202020203032E
:1000A0000303030300000000250028002B000000CC
:1000B0000000240027002A00C50311241FBECFEF33
:1000C000D8E0DEBFCDBF11E0A0E0B1E0E4EFF8E0A2
:1000D00002C005900D92A031B107D9F711E0A0E15F
:1000E000B1E001C01D92A33CB107E1F710E0CAEBFB
:1000F000D0E004C02297FE010E947404C83BD107DF
:10010000C9F70E9443040C9478040C94000040E862
:1001100055E260E070E089E191E00E94440361E013
:100120008BE00E94BF0161E08DE00C94BF01CF9392
:1001300089E191E00E942E021816190614F589E152
:1001400091E00E945B02C82FE0911901F0911A0121
:100150000190F081E02D682F89E191E00995C63486
:1001600041F0C43571F461E08BE00E94F80161E078
:1001700005C060E08BE00E94F80160E08DE00E9425
:10018000F80162E370E080E090E0CF910C943501DB
:100190001F920F920FB60F9211242F933F938F93BC
:1001A0009F93AF93BF938091110190911201A09101
:1001B0001301B09114013091100123E0230F2D376A
:1001C00020F40196A11DB11D05C026E8230F02965B
:1001D000A11DB11D20931001809311019093120174
:1001E000A0931301B0931401809115019091160111
:1001F000A0911701B09118010196A11DB11D809326
:10020000150190931601A0931701B0931801BF91A7
:10021000AF919F918F913F912F910F900FBE0F90B3
:100220001F9018953FB7F894809115019091160191
:10023000A0911701B091180126B5A89B05C02F3FCA
:1002400019F00196A11DB11D3FBF6627782F892F98
:100250009A2F620F711D811D911D42E0660F771F5D
:10026000881F991F4A95D1F70895CF92DF92EF9298
:10027000FF92CF93DF936B017C010E941201EB018F
:10028000C114D104E104F10479F00E9412016C1B45
:100290007D0B683E7340A0F381E0C81AD108E108E5
:1002A000F108C851DC4FECCFDF91CF91FF90EF9078
:1002B000DF90CF900895789484B5826084BD84B532
:1002C000816084BD85B5826085BD85B5816085BD51
:1002D000EEE6F0E0808181608083E1E8F0E010826A
:1002E000808182608083808181608083E0E8F0E0AB
:1002F000808181608083E1EBF0E080818460808395
:10030000E0EBF0E0808181608083EAE7F0E08081CB
:10031000846080838081826080838081816080832B
:100320008081806880831092C1000895833081F0BD
:1003300028F4813099F08230A1F008958630A9F038
:100340008730B9F08430D1F4809180008F7D03C074
:10035000809180008F7780938000089584B58F7797
:1003600002C084B58F7D84BD08958091B0008F77E1
:1003700003C08091B0008F7D8093B0000895CF932B
:10038000DF9390E0FC01E458FF4F2491FC01E0571B
:10039000FF4F8491882349F190E0880F991FFC0159
:1003A000E255FF4FA591B4918C559F4FFC01C5912B
:1003B000D4919FB7611108C0F8948C912095822345
:1003C0008C93888182230AC0623051F4F8948C9116
:1003D000322F309583238C938881822B888304C0AD
:1003E000F8948C91822B8C939FBFDF91CF910895CD
:1003F0000F931F93CF93DF931F92CDB7DEB7282FB4
:1004000030E0F901E859FF4F8491F901E458FF4FBA
:100410001491F901E057FF4F04910023C9F088239C
:1004200021F069830E9496016981E02FF0E0EE0FD0
:10043000FF1FEC55FF4FA591B4919FB7F8948C9195
:10044000611103C01095812301C0812B8C939FBF44
:100450000F90DF91CF911F910F910895FC0124859A
:100460003585F901E05CFF4F80819181F901EE5BF8
:10047000FF4F20813181821B930B8F739927089541
:10048000FC0184859585FC01E05CFF4F4081518132
:10049000FC01EE5BFF4F208131814217530741F091
:1004A0000190F081E02DE80FF91F808190E0089520
:1004B0008FEF9FEF0895FC0184859585FC01E05C3A
:1004C000FF4F40815181FC01EE5BFF4F2081318164
:1004D0004217530779F0A081B181A80FB91F8C9101
:1004E000208131812F5F3F4F2F733327318320834A
:1004F00090E008958FEF9FEF0895FC0181A188237C
:1005000029F0A489B5898C9186FFFBCF11A20895AB
:10051000CF93DF93FC0126853785D901A05CBF4FBF
:100520008D919C91119701968F739927E901CE5B6C
:10053000DF4F4881598184179507D9F30D90BC91FD
:10054000A02DA20FB31F6C93A685B785A05CBF4FEB
:1005500011969C938E93A689B7892C9181E090E0A7
:10056000078C02C0880F991F0A94E2F7282B2C935E
:1005700081E081A30488F589E02D808180648083F7
:1005800081E090E0DF91CF91089508951F920F923E
:100590000FB60F9211242F933F934F938F939F93F6
:1005A000EF93FF938091C00082FD1CC04091C60074
:1005B0008091BF019091C00101968F73992720917E
:1005C000C1013091C2018217930771F0E091BF0120
:1005D000F091C001E158FE4F40839093C001809399
:1005E000BF0102C08091C600FF91EF919F918F9152
:1005F0004F913F912F910F900FBE0F901F90189524
:1006000089E191E00E942E02892B11F00C94C50221
:1006100008951F920F920FB60F9211242F933F93BC
:100620008F939F93EF93FF9320917B0130917C01F7
:1006300080917D0190917E012817390731F48091D6
:10064000C1008F7D8093C10014C0E0917D01F091C5
:100650007E01E55CFE4F208180917D0190917E01BD
:1006600001968F73992790937E0180937D0120934B
:10067000C600FF91EF919F918F913F912F910F9025
:100680000FBE0F901F901895CF92DF92EF92FF92BE
:10069000CF93DF93EC016A017B01411581EE58078E
:1006A00061057105F9F0EC89FD8981E090E008A011
:1006B00002C0880F991F0A94E2F7808360E079E016
:1006C0008DE390E0A70196010E945004215031096A
:1006D000410951095695479537952795211580E190
:1006E000380798F0EC89FD89108260E874E88EE1A3
:1006F00090E0A70196010E94500421503109410960
:1007000051095695479537952795E889F98930839A
:10071000EA89FB89208319A2EE89FF89408181E063
:1007200090E09C010C8C02C0220F331F0A94E2F768
:10073000422B4083EE89FF8940819C010D8C02C0D1
:10074000220F331F0A94E2F7422B4083EE89FF8980
:1007500040819C010E8C02C0220F331F0A94E2F7E5
:10076000422B4083EE89FF8920810F8C02C0880FC5
:10077000991F0A94E2F7809582238083DF91CF91BD
:10078000FF90EF90DF90CF90089510921C0110928F
:100790001B0188EE93E0A0E0B0E080931D019093F0
:1007A0001E01A0931F01B093200184E091E090937B
:1007B0001A01809319018FE791E0909326018093AD
:1007C00025018BE391E0909328018093270185EC2C
:1007D00090E090932A018093290184EC90E090931B
:1007E0002C0180932B0180EC90E090932E0180935C
:1007F0002D0181EC90E09093300180932F0182ECE9
:1008000090E0909332018093310186EC90E09093D8
:1008100034018093330184E08093350183E0809339
:10082000360187E08093370185E08093380181E0CD
:10083000809339010895CF92DF92EF92FF920F9348
:100840001F93CF93DF936C017A01EB01E60EF71E45
:1008500000E010E0CE15DF0561F06991D601ED9161
:10086000FC910190F081E02DC6010995080F191F38
:10087000F1CFC801DF91CF911F910F91FF90EF90C1
:10088000DF90CF9008950E945B010E948700C0E036
:10089000D3E00E9497002097E1F30E940003F9CF74
:1008A000A1E21A2EAA1BBB1BFD010DC0AA1FBB1F74
:1008B000EE1FFF1FA217B307E407F50720F0A21BE6
:1008C000B30BE40BF50B661F771F881F991F1A9453
:1008D00069F760957095809590959B01AC01BD017D
:1008E000CF010895EE0FFF1F0590F491E02D0994BC
:0408F000F894FFCFAA
:1008F4000000000088021B042E025B0240027D02FD
:00000001FF
