:100000000C945F000C9487000C9487000C9487007C
:100010000C9487000C9487000C9487000C94870044
:100020000C9487000C9487000C9487000C94870034
:100030000C9487000C9487000C9487000C94870024
:100040000C94C5060C9487000C9428090C946B0939
:100050000C9487000C9487000C9487000C94870004
:100060000C9487000C948700000000070002010038
:100070000003040600000000000000000102040864
:100080001020408001020408102001020408102002
:10009000040404040404040402020202020203032E
:1000A0000303030300000000250028002B000000CC
:1000B0000000240027002A008703270A8F03112449
:1000C0001FBECFEFD8E0DEBFCDBF11E0A0E0B1E0B2
:1000D000E6E7F7E102C005900D92A834B107D9F721
:1000E00012E0A8E4B1E001C01D92A537B107E1F725
:1000F00010E0CCEBD0E004C02297FE010E942F0B51
:10010000C83BD107C9F70E94AC0A0C94AE0B0C9403
:100110000000089508958EE190E090930701809388
:1001200006011092AA0108951092A5011092A4014F
:1001300083E090E09093A7018093A6010C948B003C
:100140008FE090E090930701809306011092AA013E
:100150001092A90108958EE190E090930701809399
:1001600006011092AA0108958EE190E09093070194
:10017000809306011092AA011092A90108958EE1C0
:1001800090E090930701809306018CE38093AA018D
:1001900081E08093A80108950F93CF93DF93C0E08F
:1001A000D0E000E820E848E7BE018BEA91E00E9439
:1001B0001B052196C936D105A1F7DF91CF910F918B
:1001C0000895CF93DF93C0E0D0E020E030E0A901B4
:1001D000BE018BEA91E00E944D052196C936D105FA
:1001E000A1F7DF91CF9108950F93CF93DF93C0E0F4
:1001F000D0E08091AA01BE01680F711D20E030E0BF
:10020000A9018BEA91E00E944D052396C936D105DC
:1002100081F78091AA018F5F833018F48093AA013F
:1002200002C01092AA01C0E0D0E08091AA01BE01F4
:10023000680F711D0FEF20E040E08BEA91E00E9413
:100240001B052396C936D10581F7DF91CF910F9118
:100250000895E091A601F091A701EE0FFF1FED5D5B
:10026000FE4F0190F081E02D09958091A4019091BD
:10027000A50101968B3321E0920729F09093A50107
:100280008093A40108951092A5011092A401809179
:10029000A6019091A70101969093A7018093A601D2
:1002A000FC01EE0FFF1FE15FFE4F0190F081E02D9A
:1002B00009940F938091A9016091AA01813061F0A6
:1002C00030F0823089F470E00FEF20E008C070E079
:1002D00000E020E04FEF04C070E000E02FEF40E0CE
:1002E0008BEA91E00E941B058091AA018F5F8A36FC
:1002F00018F48093AA010CC01092AA018091A90160
:1003000090E0019663E070E00E94CD0A8093A9011D
:100310000F9108950F93CF93DF93C0E0D0E0409109
:10032000AA01042F20E0BE018BEA91E00E941B0588
:100330002196C936D10599F72091A8018091AA018B
:10034000222319F08C3E18F406C0803520F491E089
:1003500092279093A8019091A801992311F08C5EA7
:1003600001C084518093AA01DF91CF910F9108952C
:100370008BEA91E00E944B048BEA91E00E945804C2
:1003800061E08DE00E94BC0761E08DE00E94F5070E
:1003900040E052EC61E070E087EC91E00E94A60939
:1003A00061E487EC91E00E94A50AE0910401F091DC
:1003B0000501EE0FFF1FE15FFE4F0190F081E02D80
:1003C0000994CF93DF9327E1289FF001299FF00D37
:1003D0001124E85BFE4FC689DD27C7FDD0956489EF
:1003E000772767FD7095872F972F0E945008CE01C1
:1003F000860F971FDF91CF9108959F92AF92BF9282
:10040000CF92DF92EF92FF920F931F93CF93DF93E0
:1004100087E390E0909307018093060181E0809349
:10042000A80180E00E942B080E9448088FE1809379
:100430005C0110925E0128E020935D0196E19093AB
:1004400073018093750195E09093740180938A0104
:1004500085E380938C0120938B0185E18093A1013A
:1004600084E58093A3019093A2013DE5C32E31E082
:10047000D32E08E411E0C0E0D0E099249A9480E003
:1004800090E0F6012081332727FD309582179307EE
:1004900034F4F801E80FF91F90820196F2CFE12CB5
:1004A000F12CF6018081992787FD9095E816F906D1
:1004B000BCF420E030E0A90164EC7FEF8FEF9FEF08
:1004C0000E9474085801AE0CBF1CF5016287CE0172
:1004D0000E94E101F5018083FFEFEF1AFF0AE1CFEF
:1004E0002196F7E1CF0ED11C095E1F4FC430D10514
:1004F00031F6C0E0D0E020E030E0A901BE018BEA97
:1005000091E00E944D052196C936D105A1F7DF91F2
:10051000CF911F910F91FF90EF90DF90CF90BF9000
:10052000AF909F90089582E090E0909305018093B2
:1005300004010C94FD018F3154F02DE230E0281BB2
:10054000310987FD3395822F880F26FD80E00895BD
:10055000AF92BF92CF92DF92EF92FF920F931F93D1
:10056000CF93DF934DE5E42E41E0F42EC12CD12C46
:10057000E7012B97A12CB12CF7018081992787FDEA
:100580009095A816B9066CF51881111684F4812F80
:100590000E949B02FE013A976081772767FD709564
:1005A000082F20E040E08BEA91E00E941B05888143
:1005B0008F5F88831C3384F020E030E0A90164EC75
:1005C0007FEF8FEF9FEF0E9474086883C6010E943F
:1005D000E101FE013A9780838FEFA81AB80A2196AD
:1005E000CBCFFFEFCF1ADF0A87E1E80EF11CE4E082
:1005F000CE16D10409F0BCCFDF91CF911F910F919E
:10060000FF90EF90DF90CF90BF90AF900895853529
:1006100040F4982F990F980F692F609540E0892F2B
:1006200012C08A3A48F49BEA980F892F880F890FE5
:10063000482F60E0809507C08A5A682F660F680FC0
:10064000462F409580E00C949505CF93DF93C0E052
:10065000D0E08091AA018C0F0E9407039B01AC019E
:10066000BE018BEA91E00E944D052196C936D10565
:1006700081F78091AA018F5F8093AA01DF91CF91CA
:1006800008950F931F93CF93DF93C0E0D0E0809144
:10069000A901BE01680F711D20E030E0A9018BEABD
:1006A00091E00E944D052496CC36D10581F78091CA
:1006B000AA018F5F8093AA018091A90190E0019621
:1006C000837099278093A901C0E0D0E00FEF10E07C
:1006D0008091AA019E01280F311DC901B8010E9415
:1006E000CD0A0E9407039B01AC018091A901BE01C4
:1006F000680F711D8BEA91E00E944D052496CC365F
:10070000D10531F7DF91CF911F910F91089523E02B
:1007100046E061E870E08BEA91E00C94F2038BEA2A
:1007200091E00C943C0487EC91E00E94900818162C
:100730001906E4F487EC91E00E94BD088B30910526
:1007400028F4909305018093040104C010920501E0
:1007500010920401E0910401F0910501EE0FFF1FDA
:10076000E15FFE4F0190F081E02D0995E0910401D9
:10077000F0910501EE0FFF1FED5DFE4F0190F0813E
:10078000E02D09958BEA91E00E94580460910601E2
:1007900070910701882777FD8095982F0C94320778
:1007A00061E08DE00E94F5070FEF2FEF4FEF65E05E
:1007B00070E08BEA91E00E941B058BEA91E00E94B9
:1007C000580462E370E080E090E00E94320787EC1A
:1007D00091E00E949008892B39F387EC91E00E9408
:1007E000BD08F5CFFF920F931F93CF93DF93EC01DA
:1007F000F22E798368838B01000F111F060F171FDC
:100800001B830A834C832B8750E0FA01E057FF4F8C
:10081000E491F0E0EE0FFF1FEC55FF4F85919491AE
:10082000998B888BFA01E458FF4F44914A8BC80199
:100830000E949E059F838E83009729F0A80160E0A7
:1008400070E00E949F0BF0FE04C081E0888719864B
:100850000BC0F2FE06C081E0888782E089871A8695
:1008600005C0188681E0898782E08A87DF91CF9171
:100870001F910F91FF900895CF93DF93EC018E812C
:100880009F81009711F00E94360660E08C81DF9115
:10089000CF910C94BC07CF93DF93EC0161E08C8186
:1008A0000E94BC0760E08C81DF91CF910C94F5072A
:1008B000CF92DF92EF92FF920F931F93CF93DF932C
:1008C000CDB7DEB729970FB6F894DEBF0FBECDBF08
:1008D0008C01DC0116968D919C911797892B09F458
:1008E0009BC00E940F07F801C484D584E684F78476
:1008F0006C197D098E099F09623371058105910587
:1009000080F3F894828193819A838983A681B78149
:100910007D01EFEFEE1AFE0A8C918987D8011B96B4
:100920009C911B9750960D90BC91A02DF801828947
:1009300091FF2EC09C91982B98879C91809589233C
:100940008F838F818E8388E08D8358856F81498561
:100950003D812E8189819A81F7015C9347FD252F86
:100960003A952C93262F39F0441F00C000006C9359
:10097000000000C0F2CF38E041916C930000019775
:1009800061F7F801B18BA08B49873D832E8338C076
:100990009C91982B98879C91809589238F838F8138
:1009A0008C8388E08B8358856F8149853B812C81BE
:1009B00089819A81F7015C9347FD252F00C000C013
:1009C0002C9300C000C000C000C000C06C930000A9
:1009D000262F3A9541F0441F000000C000C000C01F
:1009E00000C000C0E8CF38E0419100C06C9300C067
:1009F000019709F7F801B18BA08B49873B832C83C2
:100A00009A83898378940E940F07D8011C966D936E
:100A10007D938D939C931F9729960FB6F894DEBF14
:100A20000FBECDBFDF91CF911F910F91FF90EF903F
:100A3000DF90CF9008950F931F93FC0180819181E7
:100A40006817790738F58581882361F0489FA001F0
:100A50001124452F289F90011124232F089F8001E6
:100A60001124012FDB01AA0FBB1FA60FB71F868120
:100A700097818A0F9B1F3085DC01A30FB11D4C931A
:100A80003185DC01A30FB11D2C932285FC01E20FFF
:100A9000F11D00831F910F910895CF92DF92EF9285
:100AA000FF920F931F93CF93DF93FC01808191817D
:100AB0006817790788F5CA01AA27BB27082FC32E14
:100AC000D42EE52EFF241C2DD22FC581CC2361F01E
:100AD0008C9FC0011124092FCC9E600111241D2D73
:100AE0002C9F90011124D32F9B01220F331F260F1F
:100AF000371F86819781820F931F2085DC01A20F0B
:100B0000B11D0C932185DC01A20FB11D1C93228520
:100B1000FC01E20FF11DD083DF91CF911F910F9166
:100B2000FF90EF90DF90CF900895962F50E060E017
:100B300070E0592B682BCB01BA010895CF93DF9356
:100B40008230910510F482E090E0E0917302F09120
:100B5000740220E030E0A0E0B0E0309739F140814D
:100B6000518148175907B8F04817590771F4828125
:100B70009381109729F013969C938E9312972CC013
:100B8000909374028093730227C02115310531F0D0
:100B90004217530718F0A901DB0101C0EF019A01C8
:100BA000BD01DF010280F381E02DD7CF2115310592
:100BB000F9F0281B390B2430310580F48A819B81A0
:100BC0006115710521F0FB019383828304C090932A
:100BD000740280937302FE01329644C0FE01E20F5C
:100BE000F31F8193919322503109398328833AC0AE
:100BF0002091710230917202232B41F420910A015D
:100C000030910B0130937202209371022091080100
:100C1000309109012115310541F42DB73EB74091BE
:100C20000C0150910D01241B350BE0917102F091E4
:100C30007202E217F307A0F42E1B3F0B28173907A7
:100C400078F0AC014E5F5F4F2417350748F04E0F28
:100C50005F1F50937202409371028193919302C07F
:100C6000E0E0F0E0CF01DF91CF910895CF93DF93E3
:100C7000009709F487C0FC01329713821282C09159
:100C80007302D0917402209781F420813181280F62
:100C9000391F80917102909172028217930779F542
:100CA000F0937202E09371026DC0DE0120E030E04B
:100CB000AE17BF0750F412964D915C9113979D01AA
:100CC0004115510509F1DA01F3CFB383A2834081C5
:100CD0005181840F951F8A179B0771F48D919C9108
:100CE0001197840F951F02969183808312968D91A0
:100CF0009C911397938382832115310529F4F093F6
:100D00007402E09373023EC0D9011396FC93EE93F4
:100D100012974D915D91A40FB51FEA17FB0779F467
:100D200080819181840F951F0296D90111969C9321
:100D30008E938281938113969C938E931297E0E019
:100D4000F0E08A819B81009719F0FE01EC01F9CF58
:100D5000CE01029628813981820F931F2091710262
:100D6000309172022817390769F4309729F41092EC
:100D700074021092730202C013821282D093720224
:100D8000C0937102DF91CF9108951F920F920FB619
:100D90000F9211242F933F938F939F93AF93BF9301
:100DA0008091BF019091C001A091C101B091C20199
:100DB0003091BE0123E0230F2D3720F40196A11DB1
:100DC000B11D05C026E8230F0296A11DB11D209379
:100DD000BE018093BF019093C001A093C101B09365
:100DE000C2018091C3019091C401A091C501B0914D
:100DF000C6010196A11DB11D8093C3019093C4014A
:100E0000A093C501B093C601BF91AF919F918F91FF
:100E10003F912F910F900FBE0F901F9018953FB7E5
:100E2000F8948091C3019091C401A091C501B09143
:100E3000C60126B5A89B05C02F3F19F00196A11D3C
:100E4000B11D3FBF6627782F892F9A2F620F711D22
:100E5000811D911D42E0660F771F881F991F4A95DB
:100E6000D1F70895CF92DF92EF92FF92CF93DF9365
:100E70006B017C010E940F07EB01C114D104E10456
:100E8000F10479F00E940F076C1B7D0B683E7340E4
:100E9000A0F381E0C81AD108E108F108C851DC4F7D
:100EA000ECCFDF91CF91FF90EF90DF90CF9008953E
:100EB000789484B5826084BD84B5816084BD85B535
:100EC000826085BD85B5816085BDEEE6F0E08081FC
:100ED00081608083E1E8F0E010828081826080831D
:100EE000808181608083E0E8F0E0808181608083A0
:100EF000E1EBF0E0808184608083E0EBF0E08081D2
:100F000081608083EAE7F0E0808184608083808173
:100F1000826080838081816080838081806880831B
:100F20001092C1000895833081F028F4813099F047
:100F30008230A1F008958630A9F08730B9F084306E
:100F4000D1F4809180008F7D03C0809180008F77E5
:100F500080938000089584B58F7702C084B58F7D1B
:100F600084BD08958091B0008F7703C08091B00058
:100F70008F7D8093B0000895CF93DF9390E0FC01C4
:100F8000E458FF4F2491FC01E057FF4F84918823E0
:100F900049F190E0880F991FFC01E255FF4FA591A0
:100FA000B4918C559F4FFC01C591D4919FB76111AD
:100FB00008C0F8948C91209582238C938881822399
:100FC0000AC0623051F4F8948C91322F309583230B
:100FD0008C938881822B888304C0F8948C91822B17
:100FE0008C939FBFDF91CF9108950F931F93CF9361
:100FF000DF931F92CDB7DEB7282F30E0F901E85913
:10100000FF4F8491F901E458FF4F1491F901E05723
:10101000FF4F04910023C9F0882321F069830E94C7
:1010200093076981E02FF0E0EE0FFF1FEC55FF4FB3
:10103000A591B4919FB7F8948C91611103C010955C
:10104000812301C0812B8C939FBF0F90DF91CF91A3
:101050001F910F9108958E3008F08E508770209167
:101060000E0190E4299F90011124822B80937C0033
:1010700080917A00806480937A0080917A0086FD66
:10108000FCCF809178002091790090E0922B089518
:10109000009729F0BC0180E090E00C94960B089535
:1010A000CF93DF9300D000D0CDB7DEB79B01AC016A
:1010B000611571058105910569F069833A834B8358
:1010C0005C830E94910B29813A814B815C810E9453
:1010D000030B03C060E070E0CB010F900F900F9006
:1010E0000F90DF91CF910895CF92DF92EF92FF9210
:1010F0006B017C01621773078407950764F4CA01CA
:10110000B9016C197D098E099F090E9450086C0D68
:101110007D1D8E1D9F1DFF90EF90DF90CF90089555
:10112000FC0124853585F901E05CFF4F80819181C8
:10113000F901EE5BFF4F20813181821B930B8F738E
:1011400099270895FC0184859585FC01E05CFF4F9B
:1011500040815181FC01EE5BFF4F208131814217BC
:10116000530741F00190F081E02DE80FF91F8081D5
:1011700090E008958FEF9FEF0895FC018485958599
:10118000FC01E05CFF4F40815181FC01EE5BFF4FB1
:10119000208131814217530779F0A081B181A80FD6
:1011A000B91F8C91208131812F5F3F4F2F733327DF
:1011B0003183208390E008958FEF9FEF0895FC0125
:1011C00081A1882329F0A489B5898C9186FFFBCF62
:1011D00011A20895CF93DF93FC0126853785D901AD
:1011E000A05CBF4F8D919C91119701968F739927A9
:1011F000E901CE5BDF4F4881598184179507D9F308
:101200000D90BC91A02DA20FB31F6C93A685B7853E
:10121000A05CBF4F11969C938E93A689B7892C91A1
:1012200081E090E0078C02C0880F991F0A94E2F7D2
:10123000282B2C9381E081A30488F589E02D8081FF
:101240008064808381E090E0DF91CF9108950895DC
:101250001F920F920FB60F9211242F933F934F932B
:101260008F939F93EF93FF938091C00082FD1CC0EA
:101270004091C60080916D0290916E0201968F732D
:10128000992720916F02309170028217930771F0B5
:10129000E0916D02F0916E02E35DFD4F408390930B
:1012A0006E0280936D0202C08091C600FF91EF91A3
:1012B0009F918F914F913F912F910F900FBE0F9063
:1012C0001F90189587EC91E00E949008892B11F0EF
:1012D0000C94270908951F920F920FB60F921124B4
:1012E0002F933F938F939F93EF93FF932091290226
:1012F00030912A0280912B0290912C0228173907F5
:1013000031F48091C1008F7D8093C10014C0E091C1
:101310002B02F0912C02E751FE4F208180912B028D
:1013200090912C0201968F73992790932C028093B1
:101330002B022093C600FF91EF919F918F913F91D7
:101340002F910F900FBE0F901F901895CF92DF92A4
:10135000EF92FF92CF93DF93EC016A017B0141157D
:1013600081EE580761057105F9F0EC89FD8981E08E
:1013700090E008A002C0880F991F0A94E2F78083CA
:1013800060E079E08DE390E0A70196010E94E10A18
:1013900021503109410951095695479537952795AF
:1013A000211580E1380798F0EC89FD89108260E80A
:1013B00074E88EE190E0A70196010E94E10A2150B5
:1013C0003109410951095695479537952795E8897F
:1013D000F9893083EA89FB89208319A2EE89FF8984
:1013E000408181E090E09C010C8C02C0220F331FF1
:1013F0000A94E2F7422B4083EE89FF8940819C01E9
:101400000D8C02C0220F331F0A94E2F7422B408357
:10141000EE89FF8940819C010E8C02C0220F331F90
:101420000A94E2F7422B4083EE89FF8920810F8CDA
:1014300002C0880F991F0A94E2F780958223808367
:10144000DF91CF91FF90EF90DF90CF9008951092B1
:10145000CA011092C90188EE93E0A0E0B0E0809349
:10146000CB019093CC01A093CD01B093CE018BE33F
:1014700091E09093C8018093C7018DE292E0909330
:10148000D4018093D30189EE91E09093D6018093AB
:10149000D50185EC90E09093D8018093D70184EC3E
:1014A00090E09093DA018093D90180EC90E09093E2
:1014B000DC018093DB0181EC90E09093DE0180936E
:1014C000DD0182EC90E09093E0018093DF0186ECF7
:1014D00090E09093E2018093E10184E08093E30146
:1014E00083E08093E40187E08093E50185E08093C9
:1014F000E60181E08093E7010895CF92DF92EF92B9
:10150000FF920F931F93CF93DF936C017A01EB014E
:10151000E60EF71E00E010E0CE15DF0561F06991E0
:10152000D601ED91FC910190F081E02DC601099565
:10153000080F191FF1CFC801DF91CF911F910F91B3
:10154000FF90EF90DF90CF900895DC01ED91FC913A
:101550000190F081E02D09940E9458070E94B80183
:10156000C2E6D9E00E9493032097E1F30E9462094A
:10157000F9CFAA1BBB1B51E107C0AA1FBB1FA617AF
:10158000B70710F0A61BB70B881F991F5A95A9F72C
:1015900080959095BC01CD01089597FB072E16F418
:1015A000009407D077FD09D00E94B90A07FC05D046
:1015B0003EF4909581959F4F0895709561957F4F6A
:1015C0000895A1E21A2EAA1BBB1BFD010DC0AA1F84
:1015D000BB1FEE1FFF1FA217B307E407F50720F09C
:1015E000A21BB30BE40BF50B661F771F881F991F17
:1015F0001A9469F760957095809590959B01AC0160
:10160000BD01CF010895052E97FB1EF400940E94A2
:101610001A0B57FD07D00E94E10A07FC03D04EF4D5
:101620000C941A0B50954095309521953F4F4F4F94
:101630005F4F089590958095709561957F4F8F4F7E
:101640009F4F08950E94330BA59F900DB49F900D5E
:10165000A49F800D911D11240895EE0FFF1F05908A
:10166000F491E02D0994A29FB001B39FC001A39F04
:10167000700D811D1124911DB29F700D811D1124CB
:10168000911D08958F929F92AF92BF92CF92DF9259
:10169000EF92FF92CF93DF93EC01688179818A8189
:1016A0009B81611571058105910521F464E279ED55
:1016B0008BE597E02DE133EF41E050E00E94030B12
:1016C00049015A019B01AC01A7EAB1E40E94220B37
:1016D0006B017C01ACEEB4EFA50194010E94A90B53
:1016E000C60ED71EE81EF91EF7FE06C081E0C81A16
:1016F000D108E10880E8F80AC882D982EA82FB8230
:10170000C701B6019F77DF91CF91FF90EF90DF90F7
:10171000CF90BF90AF909F908F9008950E94420B02
:10172000089580E091E00E94420B089560930001CB
:101730007093010180930201909303010895DC01ED
:1017400001C06D9341505040E0F70895B7FF0C94ED
:10175000220B0E94220B821B930B089510E0CCEB0E
:10176000D0E004C0FE010E942F0B2296CE3BD10791
:06177000C9F7F894FFCF59
:101776000100000002001E000000750280000189C1
:1017860000CC00FD018B00BF00A000AB00B40094AC
:1017960000D003E1008A00A802F4008A015901255D
:1017A6000341032901930200000000EA087D0A9024
:0817B60008BD08A208DF0800CD
:00000001FF
