:100000000C945F000C9487000C9487000C9487007C
:100010000C9487000C9487000C9487000C94870044
:100020000C9487000C9487000C9487000C94870034
:100030000C9487000C9487000C9487000C94870024
:100040000C94B3060C9487000C9416090C9459096F
:100050000C9487000C9487000C9487000C94870004
:100060000C9487000C948700000000070002010038
:100070000003040600000000000000000102040864
:100080001020408001020408102001020408102002
:10009000040404040404040402020202020203032E
:1000A0000303030300000000250028002B000000CC
:1000B0000000240027002A009303150A9B03112443
:1000C0001FBECFEFD8E0DEBFCDBF11E0A0E0B1E0B2
:1000D000E2E5F7E102C005900D92A434B107D9F72B
:1000E00012E0A4E4B1E001C01D92A137B107E1F72D
:1000F00010E0CCEBD0E004C02297FE010E941D0B63
:10010000C83BD107C9F70E949A0A0C949C0B0C9427
:100110000000089508958EE190E090930701809388
:1001200006011092A60108951092A1011092A0015B
:1001300083E090E09093A3018093A2010C948B0044
:100140008FE090E090930701809306011092A60142
:100150001092A50108958EE190E09093070180939D
:1001600006011092A60108958EE190E09093070198
:10017000809306018CE38093A60181E08093A40123
:100180000895CF93DF93C0E0D0E087EA91E00E942A
:100190008805C817D90750F420E030E0A901BE0156
:1001A00087EA91E00E9437052196EFCFDF91CF914A
:1001B00008950F93CF93DF93C0E0D0E087EA91E0FA
:1001C0000E948805C817D90750F400E820E848E7DE
:1001D000BE0187EA91E00E9405052196EFCFDF91ED
:1001E000CF910F9108950F93CF93DF93C0E0D0E0AC
:1001F00087EA91E00E9488052091A601C817D907D7
:1002000060F4BE01620F711D20E030E0A90187EAB1
:1002100091E00E9437052396EBCF2F5F233018F42F
:100220002093A60102C01092A601C0E0D0E087EAA8
:1002300091E00E948805C817D90770F48091A60143
:10024000BE01680F711D0FEF20E040E087EA91E0EA
:100250000E9405052396EBCFDF91CF910F91089572
:10026000E091A201F091A301EE0FFF1FEF5DFE4FA1
:100270000190F081E02D09958091A0019091A1015C
:1002800001968B3321E0920729F09093A10180938E
:10029000A00108951092A1011092A0018091A201E5
:1002A0009091A30101969093A3018093A201FC0178
:1002B000EE0FFF1FE15FFE4F0190F081E02D0994EA
:1002C0000F938091A5016091A601813061F030F01B
:1002D000823089F470E00FEF20E008C070E000E0A9
:1002E00020E04FEF04C070E000E02FEF40E087EA2D
:1002F00091E00E9405058091A6018F5F8A3618F46F
:100300008093A6010CC01092A6018091A50190E0F7
:10031000019663E070E00E94BB0A8093A5010F91F3
:1003200008950F93CF93DF93C0E0D0E087EA91E088
:100330000E9488054091A601C817D90748F4042FE8
:1003400020E0BE0187EA91E00E9405052196EECFEC
:100350009091A401992319F04C3E18F406C0403541
:1003600020F481E089278093A4018091A40188234F
:1003700011F04C5E01C044514093A601DF91CF9132
:100380000F91089587EA91E00E94350487EA91E091
:100390000E94420440E855E260E070E083EC91E0A6
:1003A0000E94940961E483EC91E00E94930AE09139
:1003B0000401F0910501EE0FFF1FE15FFE4F019078
:1003C000F081E02D0994CF93DF9327E1289FF0017E
:1003D000299FF00D1124EC5BFE4FC689DD27C7FD78
:1003E000D0956489772767FD7095872F972F0E9496
:1003F0003E08CE01860F971FDF91CF9108959F92FF
:10040000AF92BF92CF92DF92EF92FF920F931F9322
:10041000CF93DF9387E390E09093070180930601E9
:1004200081E08093A40180E00E9419080E943608B0
:100430008FE18093580110925A0128E020935901CE
:1004400096E190936F018093710195E09093700114
:100450008093860185E3809388012093870185E15D
:1004600080939D0184E580939F0190939E0139E5DF
:10047000C32E31E0D32E04E411E0C0E0D0E0992493
:100480009A9480E090E0F6012081332727FD309593
:100490008217930734F4F801E80FF91F9082019650
:1004A000F2CFE12CF12CF6018081992787FD909500
:1004B000E816F906BCF420E030E0A90164EC7FEF17
:1004C0008FEF9FEF0E9462085801AE0CBF1CF50130
:1004D0006287CE010E94E301F5018083FFEFEF1AEE
:1004E000FF0AE1CF2196F7E1CF0ED11C095E1F4F25
:1004F000C430D10531F6C0E0D0E087EA91E00E9437
:100500008805C817D90750F420E030E0A901BE01E2
:1005100087EA91E00E9437052196EFCFDF91CF91D6
:100520001F910F91FF90EF90DF90CF90BF90AF9011
:100530009F9008958F3154F02DE230E0281B31094F
:1005400087FD3395822F880F26FD80E00895AF92B6
:10055000BF92CF92DF92EF92FF920F931F93CF93B0
:10056000DF9349E5E42E41E0F42EC12CD12CE701C4
:100570002B97A12CB12CF7018081992787FD9095AD
:10058000A816B9066CF51881111684F4812F0E9403
:100590009A02FE013A976081772767FD7095082FD0
:1005A00020E040E087EA91E00E94050588818F5FA6
:1005B00088831C3384F020E030E0A90164EC7FEFF5
:1005C0008FEF9FEF0E9462086883C6010E94E301DB
:1005D000FE013A9780838FEFA81AB80A2196CBCFF5
:1005E000FFEFCF1ADF0A87E1E80EF11CE4E0CE1638
:1005F000D10409F0BCCFDF91CF911F910F91FF90F3
:10060000EF90DF90CF90BF90AF900895853540F484
:10061000982F990F980F692F609540E0892F12C08D
:100620008A3A48F49BEA980F892F880F890F482F40
:1006300060E0809507C08A5A682F660F680F462FC2
:10064000409580E00C947F05CF93DF93C0E0D0E02D
:1006500087EA91E00E9488052091A601C817D90772
:1006600068F48C2F820F0E9406039B01AC01BE012F
:1006700087EA91E00E9437052196EACF2F5F209309
:10068000A601DF91CF9108950F931F93CF93DF932E
:10069000C0E0D0E087EA91E00E9488052091A501A2
:1006A000C817D90760F4BE01620F711D20E030E069
:1006B000A90187EA91E00E9437052496EBCF90913B
:1006C000A6019F5F9093A601822F90E00196837010
:1006D00099278093A501C0E0D0E00FEF10E087EAF2
:1006E00091E00E948805C817D907C0F48091A6013F
:1006F0009E01280F311DC901B8010E94BB0A0E944A
:1007000006039B01AC018091A501BE01680F711D1C
:1007100087EA91E00E9437052496E1CFDF91CF91DF
:100720001F910F91089523E046E069E670E087EAA3
:1007300091E00C94DC0387EA91E00C94260483ECAE
:1007400091E00E947E0818161906E4F483EC91E00B
:100750000E94AB088A30910528F49093050180939C
:10076000040104C01092050110920401E0910401FB
:10077000F0910501EE0FFF1FE15FFE4F0190F08148
:10078000E02D0995E0910401F0910501EE0FFF1FA6
:10079000EF5DFE4F0190F081E02D099587EA91E031
:1007A0000E9442046091060170910701882777FD3D
:1007B0008095982F0C942007FF920F931F93CF934F
:1007C000DF93EC01F22E798368838B01000F111FF8
:1007D000060F171F1B830A834C832B8750E0FA01F7
:1007E000E057FF4FE491F0E0EE0FFF1FEC55FF4F95
:1007F00085919491998B888BFA01E458FF4F44912D
:100800004A8BC8010E948C059F838E83009729F034
:10081000A80160E070E00E948D0BF0FE04C081E052
:10082000888719860BC0F2FE06C081E0888782E0C7
:1008300089871A8605C0188681E0898782E08A87C1
:10084000DF91CF911F910F91FF900895CF93DF9388
:10085000EC018E819F81009711F00E94240660E0D8
:100860008C81DF91CF910C94AA07CF93DF93EC0199
:1008700061E08C810E94AA0760E08C81DF91CF91BA
:100880000C94E307CF92DF92EF92FF920F931F93A6
:10089000CF93DF93CDB7DEB729970FB6F894DEBFBD
:1008A0000FBECDBF8C01DC0116968D919C911797E0
:1008B000892B09F49BC00E94FD06F801C484D584ED
:1008C000E684F7846C197D098E099F0962337105EE
:1008D0008105910580F3F894828193819A838983BD
:1008E000A681B7817D01EFEFEE1AFE0A8C91898710
:1008F000D8011B969C911B9750960D90BC91A02DF2
:10090000F801828991FF2EC09C91982B98879C9129
:10091000809589238F838F818E8388E08D8358858E
:100920006F8149853D812E8189819A81F7015C9390
:1009300047FD252F3A952C93262F39F0441F00C0F0
:1009400000006C93000000C0F2CF38E041916C933E
:100950000000019761F7F801B18BA08B49873D83B7
:100960002E8338C09C91982B98879C9180958923E1
:100970008F838F818C8388E08B8358856F81498535
:100980003B812C8189819A81F7015C9347FD252F5A
:1009900000C000C02C9300C000C000C000C000C058
:1009A0006C930000262F3A9541F0441F000000C0D0
:1009B00000C000C000C000C0E8CF38E0419100C0D6
:1009C0006C9300C0019709F7F801B18BA08B4987A0
:1009D0003B832C839A83898378940E94FD06D801F7
:1009E0001C966D937D938D939C931F9729960FB6BC
:1009F000F894DEBF0FBECDBFDF91CF911F910F9155
:100A0000FF90EF90DF90CF9008950F931F93FC011C
:100A1000808191816817790738F58581882361F095
:100A2000489FA0011124452F289F90011124232FB6
:100A3000089F80011124012FDB01AA0FBB1FA60F05
:100A4000B71F868197818A0F9B1F3085DC01A30F1A
:100A5000B11D4C933185DC01A30FB11D2C93228570
:100A6000FC01E20FF11D00831F910F910895CF92B9
:100A7000DF92EF92FF920F931F93CF93DF93FC01CE
:100A8000808191816817790788F5CA01AA27BB2759
:100A9000082FC32ED42EE52EFF241C2DD22FC58166
:100AA000CC2361F08C9FC0011124092FCC9E6001E2
:100AB00011241D2D2C9F90011124D32F9B01220F57
:100AC000331F260F371F86819781820F931F208542
:100AD000DC01A20FB11D0C932185DC01A20FB11D19
:100AE0001C932285FC01E20FF11DD083DF91CF9191
:100AF0001F910F91FF90EF90DF90CF900895962F68
:100B000050E060E070E0592B682BCB01BA010895EA
:100B1000FC01808191810895CF93DF93823091050C
:100B200010F482E090E0E0916F02F091700220E01A
:100B300030E0A0E0B0E0309739F1408151814817B2
:100B40005907B8F04817590771F4828193811097BB
:100B500029F013969C938E9312972CC09093700259
:100B600080936F0227C02115310531F042175307DA
:100B700018F0A901DB0101C0EF019A01BD01DF01FD
:100B80000280F381E02DD7CF21153105F9F0281B24
:100B9000390B2430310580F48A819B816115710500
:100BA00021F0FB019383828304C0909370028093B1
:100BB0006F02FE01329644C0FE01E20FF31F8193E3
:100BC000919322503109398328833AC020916D02D4
:100BD00030916E02232B41F420910A0130910B01D8
:100BE00030936E0220936D0220910801309109012B
:100BF0002115310541F42DB73EB740910C015091BC
:100C00000D01241B350BE0916D02F0916E02E2178D
:100C1000F307A0F42E1B3F0B2817390778F0AC011F
:100C20004E5F5F4F2417350748F04E0F5F1F5093FC
:100C30006E0240936D028193919302C0E0E0F0E078
:100C4000CF01DF91CF910895CF93DF93009709F4FF
:100C500087C0FC01329713821282C0916F02D0913B
:100C60007002209781F420813181280F391F8091F3
:100C70006D0290916E028217930779F5F0936E02E0
:100C8000E0936D026DC0DE0120E030E0AE17BF07DB
:100C900050F412964D915C9113979D0141155105A9
:100CA00009F1DA01F3CFB383A28340815181840F2C
:100CB000951F8A179B0771F48D919C911197840F52
:100CC000951F02969183808312968D919C91139724
:100CD000938382832115310529F4F0937002E09308
:100CE0006F023EC0D9011396FC93EE9312974D917B
:100CF0005D91A40FB51FEA17FB0779F480819181FC
:100D0000840F951F0296D90111969C938E93828130
:100D1000938113969C938E931297E0E0F0E08A8182
:100D20009B81009719F0FE01EC01F9CFCE010296EC
:100D300028813981820F931F20916D0230916E02BC
:100D40002817390769F4309729F41092700210922D
:100D50006F0202C013821282D0936E02C0936D02A2
:100D6000DF91CF9108951F920F920FB60F92112429
:100D70002F933F938F939F93AF93BF938091BB012A
:100D80009091BC01A091BD01B091BE013091BA011A
:100D900023E0230F2D3720F40196A11DB11D05C0BE
:100DA00026E8230F0296A11DB11D2093BA0180935E
:100DB000BB019093BC01A093BD01B093BE01809193
:100DC000BF019091C001A091C101B091C2010196F3
:100DD000A11DB11D8093BF019093C001A093C101DB
:100DE000B093C201BF91AF919F918F913F912F918D
:100DF0000F900FBE0F901F9018953FB7F8948091F9
:100E0000BF019091C001A091C101B091C20126B56E
:100E1000A89B05C02F3F19F00196A11DB11D3FBF32
:100E20006627782F892F9A2F620F711D811D911DC2
:100E300042E0660F771F881F991F4A95D1F70895E2
:100E4000CF92DF92EF92FF92CF93DF936B017C0101
:100E50000E94FD06EB01C114D104E104F10479F014
:100E60000E94FD066C1B7D0B683E7340A0F381E081
:100E7000C81AD108E108F108C851DC4FECCFDF9166
:100E8000CF91FF90EF90DF90CF900895789484B544
:100E9000826084BD84B5816084BD85B5826085BD76
:100EA00085B5816085BDEEE6F0E08081816080835C
:100EB000E1E8F0E01082808182608083808181603F
:100EC0008083E0E8F0E0808181608083E1EBF0E006
:100ED000808184608083E0EBF0E0808181608083AA
:100EE000EAE7F0E080818460808380818260808393
:100EF0008081816080838081806880831092C100BE
:100F00000895833081F028F4813099F08230A1F087
:100F100008958630A9F08730B9F08430D1F48091FB
:100F200080008F7D03C0809180008F778093800048
:100F3000089584B58F7702C084B58F7D84BD0895F0
:100F40008091B0008F7703C08091B0008F7D809337
:100F5000B0000895CF93DF9390E0FC01E458FF4F79
:100F60002491FC01E057FF4F8491882349F190E0E0
:100F7000880F991FFC01E255FF4FA591B4918C5544
:100F80009F4FFC01C591D4919FB7611108C0F8949F
:100F90008C91209582238C93888182230AC06230B1
:100FA00051F4F8948C91322F309583238C9388815F
:100FB000822B888304C0F8948C91822B8C939FBFE2
:100FC000DF91CF9108950F931F93CF93DF931F92DB
:100FD000CDB7DEB7282F30E0F901E859FF4F8491F3
:100FE000F901E458FF4F1491F901E057FF4F0491C4
:100FF0000023C9F0882321F069830E948107698159
:10100000E02FF0E0EE0FFF1FEC55FF4FA591B491DC
:101010009FB7F8948C91611103C01095812301C092
:10102000812B8C939FBF0F90DF91CF911F910F91D8
:1010300008958E3008F08E50877020910E0190E454
:10104000299F90011124822B80937C0080917A004B
:10105000806480937A0080917A0086FDFCCF809135
:1010600078002091790090E0922B0895009729F064
:10107000BC0180E090E00C94840B0895CF93DF9343
:1010800000D000D0CDB7DEB79B01AC016115710572
:101090008105910569F069833A834B835C830E94E3
:1010A0007F0B29813A814B815C810E94F10A03C048
:1010B00060E070E0CB010F900F900F900F90DF91E8
:1010C000CF910895CF92DF92EF92FF926B017C0156
:1010D000621773078407950764F4CA01B9016C1994
:1010E0007D098E099F090E943E086C0D7D1D8E1D95
:1010F0009F1DFF90EF90DF90CF900895FC01248515
:101100003585F901E05CFF4F80819181F901EE5B4B
:10111000FF4F20813181821B930B8F739927089594
:10112000FC0184859585FC01E05CFF4F4081518185
:10113000FC01EE5BFF4F208131814217530741F0E4
:101140000190F081E02DE80FF91F808190E0089573
:101150008FEF9FEF0895FC0184859585FC01E05C8D
:10116000FF4F40815181FC01EE5BFF4F20813181B7
:101170004217530779F0A081B181A80FB91F8C9154
:10118000208131812F5F3F4F2F733327318320839D
:1011900090E008958FEF9FEF0895FC0181A18823CF
:1011A00029F0A489B5898C9186FFFBCF11A20895FF
:1011B000CF93DF93FC0126853785D901A05CBF4F13
:1011C0008D919C91119701968F739927E901CE5BC0
:1011D000DF4F4881598184179507D9F30D90BC9151
:1011E000A02DA20FB31F6C93A685B785A05CBF4F3F
:1011F00011969C938E93A689B7892C9181E090E0FB
:10120000078C02C0880F991F0A94E2F7282B2C93B1
:1012100081E081A30488F589E02D8081806480834A
:1012200081E090E0DF91CF91089508951F920F9291
:101230000FB60F9211242F933F934F938F939F9349
:10124000EF93FF938091C00082FD1CC04091C600C7
:101250008091690290916A0201968F73992720917B
:101260006B0230916C028217930771F0E091690272
:10127000F0916A02E75DFD4F408390936A0280938C
:10128000690202C08091C600FF91EF919F918F91FA
:101290004F913F912F910F900FBE0F901F90189577
:1012A00083EC91E00E947E08892B11F00C941509C3
:1012B00008951F920F920FB60F9211242F933F9310
:1012C0008F939F93EF93FF932091250230912602F5
:1012D00080912702909128022817390731F48091D4
:1012E000C1008F7D8093C10014C0E0912702F0916E
:1012F0002802EB51FE4F2081809127029091280215
:1013000001968F7399279093280280932702209348
:10131000C600FF91EF919F918F913F912F910F9078
:101320000FBE0F901F901895CF92DF92EF92FF9211
:10133000CF93DF93EC016A017B01411581EE5807E1
:1013400061057105F9F0EC89FD8981E090E008A064
:1013500002C0880F991F0A94E2F7808360E079E069
:101360008DE390E0A70196010E94CF0A2150310938
:10137000410951095695479537952795211580E1E3
:10138000380798F0EC89FD89108260E874E88EE1F6
:1013900090E0A70196010E94CF0A2150310941092E
:1013A00051095695479537952795E889F9893083EE
:1013B000EA89FB89208319A2EE89FF89408181E0B7
:1013C00090E09C010C8C02C0220F331F0A94E2F7BC
:1013D000422B4083EE89FF8940819C010D8C02C025
:1013E000220F331F0A94E2F7422B4083EE89FF89D4
:1013F00040819C010E8C02C0220F331F0A94E2F739
:10140000422B4083EE89FF8920810F8C02C0880F18
:10141000991F0A94E2F7809582238083DF91CF9110
:10142000FF90EF90DF90CF9008951092C601109238
:10143000C50188EE93E0A0E0B0E08093C7019093EF
:10144000C801A093C901B093CA0187E391E09093CA
:10145000C4018093C30189E292E09093D00180930C
:10146000CF0185EE91E09093D2018093D10185EC7C
:1014700090E09093D4018093D30184EC90E090931A
:10148000D6018093D50180EC90E09093D8018093B1
:10149000D70181EC90E09093DA018093D90182EC3E
:1014A00090E09093DC018093DB0186EC90E09093D8
:1014B000DE018093DD0184E08093DF0183E080938F
:1014C000E00187E08093E10185E08093E20181E023
:1014D0008093E3010895CF92DF92EF92FF920F93F2
:1014E0001F93CF93DF936C017A01EB01E60EF71E99
:1014F00000E010E0CE15DF0561F06991D601ED91B5
:10150000FC910190F081E02DC6010995080F191F8B
:10151000F1CFC801DF91CF911F910F91FF90EF9014
:10152000DF90CF900895DC01ED91FC910190F08166
:10153000E02D09940E9446070E94C201C0E5D9E04F
:101540000E949F032097E1F30E945009F9CFAA1B44
:10155000BB1B51E107C0AA1FBB1FA617B70710F09E
:10156000A61BB70B881F991F5A95A9F780959095D0
:10157000BC01CD01089597FB072E16F4009407D007
:1015800077FD09D00E94A70A07FC05D03EF490958C
:1015900081959F4F0895709561957F4F0895A1E2C1
:1015A0001A2EAA1BBB1BFD010DC0AA1FBB1FEE1FDD
:1015B000FF1FA217B307E407F50720F0A21BB30B28
:1015C000E40BF50B661F771F881F991F1A9469F7A4
:1015D00060957095809590959B01AC01BD01CF0100
:1015E0000895052E97FB1EF400940E94080B57FDEA
:1015F00007D00E94CF0A07FC03D04EF40C94080BCE
:1016000050954095309521953F4F4F4F5F4F08952E
:1016100090958095709561957F4F8F4F9F4F08955E
:101620000E94210BA59F900DB49F900DA49F800D4B
:10163000911D11240895EE0FFF1F0590F491E02DE8
:101640000994A29FB001B39FC001A39F700D811D9B
:101650001124911DB29F700D811D1124911D0895BB
:101660008F929F92AF92BF92CF92DF92EF92FF92B2
:10167000CF93DF93EC01688179818A819B81611529
:1016800071058105910521F464E279ED8BE597E020
:101690002DE133EF41E050E00E94F10A49015A0187
:1016A0009B01AC01A7EAB1E40E94100B6B017C0125
:1016B000ACEEB4EFA50194010E94970BC60ED71EA5
:1016C000E81EF91EF7FE06C081E0C81AD108E1083D
:1016D00080E8F80AC882D982EA82FB82C701B60193
:1016E0009F77DF91CF91FF90EF90DF90CF90BF90E9
:1016F000AF909F908F9008950E94300B089580E0E6
:1017000091E00E94300B08956093000170930101F5
:1017100080930201909303010895DC0101C06D9351
:1017200041505040E0F70895B7FF0C94100B0E9411
:10173000100B821B930B089510E0CCEBD0E004C09B
:10174000FE010E941D0B2296CE3BD107C9F7F894EB
:02175000FFCFC9
:101752000100000002001E000000710280000189E9
:1017620000D900FF018B00B400A000AB0044039439
:1017720000C1008A00A702F3009101600124034422
:1017820003300100000000D8086B0A7E08AB089005
:0417920008CD080076
:00000001FF
