:100000000C9462000C948A000C948A000C948A0070
:100010000C948A000C948A000C948A000C948A0038
:100020000C948A000C948A000C948A000C948A0028
:100030000C948A000C948A000C948A000C948A0018
:100040000C94C9000C948A000C94F0020C943303B5
:100050000C948A000C948A000C948A000C948A00F8
:100060000C948A000C948A00000000070002010032
:100070000003040600000000000000000102040864
:100080001020408001020408102001020408102002
:10009000040404040404040402020202020203032E
:1000A00003030303000000002300260029000000D2
:1000B0000000250028002B0000000000240027007D
:1000C0002A00EF0311241FBECFEFD8E0DEBFCDBF63
:1000D00011E0A0E0B1E0E8E4F9E002C005900D9283
:1000E000A031B107D9F711E0A0E1B1E001C01D9244
:1000F000A43CB107E1F710E0C4ECD0E004C02297C3
:10010000FE010E949E04C23CD107C9F70E946D0403
:100110000C94A2040C940000DC01ED91FC91019080
:10012000F081E02D099440E855E260E070E08AE15A
:1001300091E00E946E0361E08DE00E94C00160E0EA
:100140008CE00C94C001CF9364E670E080E090E016
:100150000E9436018CE00E942F02C82F809110016E
:100160008C17A9F0C11107C060E08DE00E94F90171
:1001700060E070E006C061E08DE00E94F90161E09E
:1001800070E08AE191E00E948C00C0931001CF9151
:1001900008951F920F920FB60F9211242F933F9341
:1001A0008F939F93AF93BF9380911201909113010E
:1001B000A0911401B09115013091110123E0230F9A
:1001C0002D3720F40196A11DB11D05C026E8230F8F
:1001D0000296A11DB11D20931101809312019093ED
:1001E0001301A0931401B093150180911601909111
:1001F0001701A0911801B09119010196A11DB11D1F
:100200008093160190931701A0931801B0931901E0
:10021000BF91AF919F918F913F912F910F900FBE02
:100220000F901F9018953FB7F89480911601909108
:100230001701A0911801B091190126B5A89B05C01E
:100240002F3F19F00196A11DB11D3FBF6627782FE2
:10025000892F9A2F620F711D811D911D42E0660F3B
:10026000771F881F991F4A95D1F70895CF92DF9283
:10027000EF92FF92CF93DF936B017C010E941301F9
:10028000EB01C114D104E104F10479F00E941301DF
:100290006C1B7D0B683E7340A0F381E0C81AD10847
:1002A000E108F108C851DC4FECCFDF91CF91FF900E
:1002B000EF90DF90CF900895789484B5826084BDEC
:1002C00084B5816084BD85B5826085BD85B581605A
:1002D00085BDEEE6F0E0808181608083E1E8F0E0BA
:1002E0001082808182608083808181608083E0E8E9
:1002F000F0E0808181608083E1EBF0E080818460C8
:100300008083E0EBF0E0808181608083EAE7F0E0C9
:10031000808184608083808182608083808181602D
:1003200080838081806880831092C100089583302B
:1003300081F028F4813099F08230A1F00895863060
:10034000A9F08730B9F08430D1F4809180008F7D9E
:1003500003C0809180008F7780938000089584B5DA
:100360008F7702C084B58F7D84BD08958091B000E1
:100370008F7703C08091B0008F7D8093B000089587
:10038000CF93DF9390E0FC01E458FF4F2491FC01F0
:10039000E057FF4F8491882349F190E0880F991F1F
:1003A000FC01E854FF4FA591B49182559F4FFC0189
:1003B000C591D4919FB7611108C0F8948C91209594
:1003C00082238C93888182230AC0623051F4F8948E
:1003D0008C91322F309583238C938881822B888354
:1003E00004C0F8948C91822B8C939FBFDF91CF91A6
:1003F00008950F931F93CF93DF931F92CDB7DEB76E
:10040000282F30E0F901E859FF4F8491F901E458B1
:10041000FF4F1491F901E057FF4F04910023C9F0F9
:10042000882321F069830E9497016981E02FF0E021
:10043000EE0FFF1FE255FF4FA591B4919FB7F894BF
:100440008C91611103C01095812301C0812B8C9385
:100450009FBF0F90DF91CF911F910F910895CF9380
:10046000DF93282F30E0F901E859FF4F8491F9011B
:10047000E458FF4FD491F901E057FF4FC491CC23CA
:1004800091F081110E949701EC2FF0E0EE0FFF1F19
:10049000EC55FF4FA591B4912C912D2381E090E074
:1004A00021F480E002C080E090E0DF91CF910895D8
:1004B000FC0124853585F901E05CFF4F8081918145
:1004C000F901EE5BFF4F20813181821B930B8F730B
:1004D00099270895FC0184859585FC01E05CFF4F18
:1004E00040815181FC01EE5BFF4F20813181421739
:1004F000530741F00190F081E02DE80FF91F808152
:1005000090E008958FEF9FEF0895FC018485958515
:10051000FC01E05CFF4F40815181FC01EE5BFF4F2D
:10052000208131814217530779F0A081B181A80F52
:10053000B91F8C91208131812F5F3F4F2F7333275B
:100540003183208390E008958FEF9FEF0895FC01A1
:1005500081A1882329F0A489B5898C9186FFFBCFDE
:1005600011A20895CF93DF93FC0126853785D90129
:10057000A05CBF4F8D919C91119701968F73992725
:10058000E901CE5BDF4F4881598184179507D9F384
:100590000D90BC91A02DA20FB31F6C93A685B785BB
:1005A000A05CBF4F11969C938E93A689B7892C911E
:1005B00081E090E0078C02C0880F991F0A94E2F74F
:1005C000282B2C9381E081A30488F589E02D80817C
:1005D0008064808381E090E0DF91CF910895089559
:1005E0001F920F920FB60F9211242F933F934F93A8
:1005F0008F939F93EF93FF938091C00082FD1CC067
:100600004091C6008091C0019091C10101968F7305
:1006100099272091C2013091C3018217930771F08D
:10062000E091C001F091C101E058FE4F40839093EA
:10063000C1018093C00102C08091C600FF91EF917B
:100640009F918F914F913F912F910F900FBE0F90DF
:100650001F9018958AE191E00E945802892B11F0B1
:100660000C94EF0208951F920F920FB60F9211246F
:100670002F933F938F939F93EF93FF9320917C0150
:1006800030917D0180917E0190917F01281739077B
:1006900031F48091C1008F7D8093C10014C0E0913E
:1006A0007E01F0917F01E45CFE4F208180917E010C
:1006B00090917F0101968F73992790937F0180938A
:1006C0007E012093C600FF91EF919F918F913F9102
:1006D0002F910F900FBE0F901F901895CF92DF9221
:1006E000EF92FF92CF93DF93EC016A017B014115FA
:1006F00081EE580761057105F9F0EC89FD8981E00B
:1007000090E008A002C0880F991F0A94E2F7808346
:1007100060E079E08DE390E0A70196010E947A0401
:10072000215031094109510956954795379527952B
:10073000211580E1380798F0EC89FD89108260E886
:1007400074E88EE190E0A70196010E947A0421509E
:100750003109410951095695479537952795E889FB
:10076000F9893083EA89FB89208319A2EE89FF8900
:10077000408181E090E09C010C8C02C0220F331F6D
:100780000A94E2F7422B4083EE89FF8940819C0165
:100790000D8C02C0220F331F0A94E2F7422B4083D4
:1007A000EE89FF8940819C010E8C02C0220F331F0D
:1007B0000A94E2F7422B4083EE89FF8920810F8C57
:1007C00002C0880F991F0A94E2F7809582238083E4
:1007D000DF91CF91FF90EF90DF90CF90089510922E
:1007E0001D0110921C0188EE93E0A0E0B0E0809320
:1007F0001E0190931F01A0932001B093210184E07A
:1008000091E090931B0180931A0180E891E090930E
:100810002701809326018CE391E090932901809336
:10082000280185EC90E090932B0180932A0184ECC1
:1008300090E090932D0180932C0180EC90E09093B8
:100840002F0180932E0181EC90E0909331018093F1
:10085000300182EC90E0909333018093320186EC7A
:1008600090E0909335018093340184E080933601C9
:1008700083E08093370187E08093380185E080939F
:10088000390181E080933A010895CF92DF92EF928F
:10089000FF920F931F93CF93DF936C017A01EB01CB
:1008A000E60EF71E00E010E0CE15DF0561F069915D
:1008B000D601ED91FC910190F081E02DC6010995E2
:1008C000080F191FF1CFC801DF91CF911F910F9130
:1008D000FF90EF90DF90CF9008950E945C010E94FE
:1008E0009300CAE2D3E00E94A3002097E1F30E94A4
:1008F0002A03F9CFA1E21A2EAA1BBB1BFD010DC0D2
:10090000AA1FBB1FEE1FFF1FA217B307E407F507BF
:1009100020F0A21BB30BE40BF50B661F771F881F9B
:10092000991F1A9469F760957095809590959B0131
:10093000AC01BD01CF010895EE0FFF1F0590F491AA
:08094000E02D0994F894FFCFAB
:1009480000000000B2024504580285026A02A702AC
:00000001FF
