:100000000C945E000C9486000C9486000C94860080
:100010000C9486000C9486000C9486000C94860048
:100020000C9486000C9486000C9486000C94860038
:100030000C9486000C9486000C9486000C94860028
:100040000C9462010C9486000C9427030C946A03B0
:100050000C9486000C9486000C9486000C94860008
:100060000C9486000C94860000000007000201003A
:100070000003040600000000000000000102040864
:100080001020408001020408102001020408102002
:10009000040404040404040402020202020203032E
:1000A0000303030300000000250028002B000000CC
:1000B0000000240027002A00F700260411241FBE98
:1000C000CFEFD8E0DEBFCDBF11E0A0E0B1E0ECE3C0
:1000D000FAE002C005900D92A032B107D9F713E003
:1000E000A0E2B1E001C01D92A736B107E1F710E030
:1000F000CCEBD0E004C02297FE010E941805C83B5B
:10010000D107C9F70E94E7040C941C050C94000069
:1001100061E084E00E941B0261E08DE00E941B020E
:1001200060E084E00E94540260E08DE00E9454028E
:1001300040E855E260E070E08DEB92E00E94A5039C
:1001400068E58DEB92E00C94BA04CF92DF92EF92C7
:10015000FF926B017C01F8941C141D041E041F0403
:10016000B4F461E084E00E9454028AE090E00E94CE
:10017000AC0160E084E00E9454028AE090E00E94BA
:10018000AC018AE1C81AD108E108F108E5CF7894FA
:10019000FF90EF90DF90CF9008950F931F93CF9330
:1001A000DF9300E211E0C0E0D0E0CF38F1E0DF07FC
:1001B000A1F0F801C0FD09C060817181882777FD39
:1001C0008095982F0E94A50004C0808191810E9493
:1001D000AC0121960E5F1F4FE8CF6AE071E08DEB16
:1001E00092E0DF91CF911F910F910C94D5048091F3
:1001F00004019091050101969093B1028093B002A1
:100200000895CF93DF938DEB92E00E948F020297C7
:100210000CF455C08DEB92E00E94BC02C82F8DEB10
:1002200092E00E94BC02D82F6C2F0E948A02909309
:10023000B3028093B2026C2F8DEB92E00E94E90230
:100240006D2F8DEB92E00E94E9022091B202309175
:10025000B30280910801909109012817390749F4E8
:1002600061E08DE00E9454021092B1021092B0023F
:1002700026C080910601909107012817390741F4A3
:1002800060E08DE00E945402DF91CF910C94CD008C
:100290008091B0029091B10240910401509105010A
:1002A0004817590764F0FC01EE0FFF1FE05EFE4F98
:1002B0003183208301969093B1028093B002DF9145
:1002C000CF9108951F920F920FB60F9211242F9382
:1002D0003F938F939F93AF93BF938091B50290917B
:1002E000B602A091B702B091B8023091B40223E0F7
:1002F000230F2D3720F40196A11DB11D05C026E85E
:10030000230F0296A11DB11D2093B4028093B50264
:100310009093B602A093B702B093B8028091B9024D
:100320009091BA02A091BB02B091BC020196A11DAE
:10033000B11D8093B9029093BA02A093BB02B0930F
:10034000BC02BF91AF919F918F913F912F910F90E0
:100350000FBE0F901F9018950197009739F0880FE6
:10036000991F880F991F02970197F1F708957894C4
:1003700084B5826084BD84B5816084BD85B58260AA
:1003800085BD85B5816085BDEEE6F0E08081816048
:100390008083E1E8F0E01082808182608083808148
:1003A00081608083E0E8F0E0808181608083E1EB20
:1003B000F0E0808184608083E0EBF0E08081816008
:1003C0008083EAE7F0E080818460808380818260BE
:1003D00080838081816080838081806880831092A7
:1003E000C1000895833081F028F4813099F0823083
:1003F000A1F008958630A9F08730B9F08430D1F4A7
:10040000809180008F7D03C0809180008F778093E2
:100410008000089584B58F7702C084B58F7D84BD38
:1004200008958091B0008F7703C08091B0008F7DD8
:100430008093B0000895CF93DF9390E0FC01E458DF
:10044000FF4F2491FC01E057FF4F8491882349F12D
:1004500090E0880F991FFC01E255FF4FA591B491E0
:100460008C559F4FFC01C591D4919FB7611108C075
:10047000F8948C91209582238C93888182230AC0E2
:10048000623051F4F8948C91322F309583238C9301
:100490008881822B888304C0F8948C91822B8C9362
:1004A0009FBFDF91CF9108950F931F93CF93DF9359
:1004B0001F92CDB7DEB7282F30E0F901E859FF4F82
:1004C0008491F901E458FF4F1491F901E057FF4F6F
:1004D00004910023C9F0882321F069830E94F2016E
:1004E0006981E02FF0E0EE0FFF1FEC55FF4FA59163
:1004F000B4919FB7F8948C91611103C0109581233A
:1005000001C0812B8C939FBF0F90DF91CF911F91E2
:100510000F91089570E09B01382BC9010895FC01EB
:1005200024853585F901E05CFF4F80819181F901D7
:10053000EE5BFF4F20813181821B930B8F739927D4
:100540000895FC0184859585FC01E05CFF4F4081A6
:100550005181FC01EE5BFF4F20813181421753072F
:1005600041F00190F081E02DE80FF91F808190E0CB
:1005700008958FEF9FEF0895FC0184859585FC0118
:10058000E05CFF4F40815181FC01EE5BFF4F208119
:1005900031814217530779F0A081B181A80FB91FAB
:1005A0008C91208131812F5F3F4F2F73332731830F
:1005B000208390E008958FEF9FEF0895FC0181A1C3
:1005C000882329F0A489B5898C9186FFFBCF11A2DD
:1005D0000895CF93DF93FC0126853785D901A05C70
:1005E000BF4F8D919C91119701968F739927E901C7
:1005F000CE5BDF4F4881598184179507D9F30D9061
:10060000BC91A02DA20FB31F6C93A685B785A05CEB
:10061000BF4F11969C938E93A689B7892C9181E048
:1006200090E0078C02C0880F991F0A94E2F7282BEC
:100630002C9381E081A30488F589E02D808180647A
:10064000808381E090E0DF91CF91089508951F921B
:100650000F920FB60F9211242F933F934F938F93C6
:100660009F93EF93FF938091C00082FD1CC0409147
:10067000C600809163039091640301968F7399275C
:1006800020916503309166038217930771F0E09122
:100690006303F0916403ED5DFC4F4083909364032A
:1006A0008093630302C08091C600FF91EF919F91F8
:1006B0008F914F913F912F910F900FBE0F901F90F0
:1006C00018958DEB92E00E948F02892B11F00C940B
:1006D000260308951F920F920FB60F9211242F93A5
:1006E0003F938F939F93EF93FF9320911F0330913C
:1006F000200380912103909122032817390731F4B8
:100700008091C1008F7D8093C10014C0E0912103CE
:10071000F0912203E152FD4F2081809121039091BD
:10072000220301968F7399279093220380932103CC
:100730002093C600FF91EF919F918F913F912F9150
:100740000F900FBE0F901F901895CF92DF92EF92EF
:10075000FF92CF93DF93EC016A017B01411581EE9B
:10076000580761057105F9F0EC89FD8981E090E099
:1007700008A002C0880F991F0A94E2F7808360E006
:1007800079E08DE390E0A70196010E94F4042150E6
:1007900031094109510956954795379527952115F6
:1007A00080E1380798F0EC89FD89108260E874E8F0
:1007B0008EE190E0A70196010E94F40421503109D6
:1007C000410951095695479537952795E889F98943
:1007D0003083EA89FB89208319A2EE89FF89408151
:1007E00081E090E09C010C8C02C0220F331F0A9420
:1007F000E2F7422B4083EE89FF8940819C010D8CFA
:1008000002C0220F331F0A94E2F7422B4083EE8985
:10081000FF8940819C010E8C02C0220F331F0A9475
:10082000E2F7422B4083EE89FF8920810F8C02C0C2
:10083000880F991F0A94E2F7809582238083DF91C5
:10084000CF91FF90EF90DF90CF9008951092C0026B
:100850001092BF0288EE93E0A0E0B0E08093C10266
:100860009093C202A093C302B093C40283E191E0CB
:100870009093BE028093BD0283E293E09093CA02FC
:100880008093C9028FED92E09093CC028093CB02CB
:1008900085EC90E09093CE028093CD0284EC90E0C2
:1008A0009093D0028093CF0280EC90E09093D2029C
:1008B0008093D10281EC90E09093D4028093D30294
:1008C00082EC90E09093D6028093D50286EC90E083
:1008D0009093D8028093D70284E08093D90283E07A
:1008E0008093DA0287E08093DB0285E08093DC026C
:1008F00081E08093DD020895CF92DF92EF92FF9224
:100900000F931F93CF93DF936C017A01EB01E60EF7
:10091000F71E00E010E0CE15DF0561F06991D60109
:10092000ED91FC910190F081E02DC6010995080F31
:10093000191FF1CFC801DF91CF911F910F91FF9047
:10094000EF90DF90CF9008956115710581F0DB0184
:100950000D900020E9F7AD0141505109461B570B9E
:10096000DC01ED91FC910280F381E02D099480E09F
:1009700090E00895DC01ED91FC910190F081E02D73
:1009800009940F931F93CF93DF93EC016DE00E94C6
:10099000BA048C016AE0CE010E94BA04800F911F54
:1009A000DF91CF911F910F9108950F931F93CF93D4
:1009B000DF93EC010E94A4048C01CE010E94C104CB
:1009C000800F911FDF91CF911F910F9108950E9489
:1009D000B7010E948800C1E6D3E00E940101209780
:1009E000E1F30E946103F9CFA1E21A2EAA1BBB1BFF
:1009F000FD010DC0AA1FBB1FEE1FFF1FA217B307EB
:100A0000E407F50720F0A21BB30BE40BF50B661F00
:100A1000771F881F991F1A9469F7609570958095C4
:100A200090959B01AC01BD01CF010895EE0FFF1F12
:0C0A30000590F491E02D0994F894FFCF9C
:100A3C0001000000C800FD7FFE7F444F4E450000C2
:100A4C00000000E9027C048F02BC02A102DE02005D
:00000001FF
