:100000000C945D000C9485000C9485000C94850084
:100010000C9485000C9485000C9485000C9485004C
:100020000C9485000C9485000C9485000C9485003C
:100030000C9485000C9485000C9485000C9485002C
:100040000C9456040C9485000C94CC020C940F0371
:100050000C9485000C9485000C9485000C9485000C
:100060000C9485000C94850000000007000201003C
:100070000003040600000000000000000102040864
:100080001020408001020408102001020408102002
:10009000040404040404040402020202020203032E
:1000A0000303030300000000250028002B000000CC
:1000B0000000240027002A00CB0311241FBECFEF2D
:1000C000D8E0DEBFCDBF11E0A0E0B1E0EAE0FAE0A9
:1000D00002C005900D92A831B107D9F711E0A8E14F
:1000E000B1E001C01D92A23DB107E1F710E0CAEBFB
:1000F000D0E004C02297FE010E94FF04C83BD10754
:10010000C9F70E9449040C9403050C940000CF9297
:10011000DF92EF92FF920F931F93CF93DF938C01A7
:10012000EC017C0183E0E80EF11C6E0161E0888146
:100130000E946601F8018381882319F06FEF70E057
:1001400002C060E070E02196F60180810E94D50136
:10015000CE15DF0551F7DF91CF911F910F91FF90E1
:10016000EF90DF90CF900895CF92DF92EF92FF92C1
:100170000F931F93CF93DF937C018C01CCE1D1E0EF
:10018000CC24CA94D12CF7018381882329F088815B
:10019000B601681B710902C0688170E0F8018191A5
:1001A0008F010E94D5012196F1E0CF31DF0759F789
:1001B000DF91CF911F910F91FF90EF90DF90CF9043
:1001C000089540E855E260E070E08FE191E00E9420
:1001D0004A0384E091E00E94870080E091E00C9463
:1001E00087008FE191E00E943402892B09F444C01A
:1001F0008FE191E00E946102813049F410921B016D
:1002000010921A011092190110921801EACF209150
:10021000180130911901223031051CF740911A0163
:1002200050911B01FA01E45EFE4F8083CA010196E2
:1002300090931B0180931A01039799F6232B21F4C5
:1002400084E091E00E94B40080911801909119011E
:10025000019721F480E091E00E94B40080911801A0
:1002600090911901019690931901809318011092B1
:100270001B0110921A01B5CF0895833081F028F444
:10028000813099F08230A1F008958630A9F087304E
:10029000B9F08430D1F4809180008F7D03C08091CB
:1002A00080008F7780938000089584B58F7702C097
:1002B00084B58F7D84BD08958091B0008F7703C091
:1002C0008091B0008F7D8093B0000895CF93DF932D
:1002D00090E0FC01E458FF4F2491FC01E057FF4FF0
:1002E0008491882349F190E0880F991FFC01E25521
:1002F000FF4FA591B4918C559F4FFC01C591D491AE
:100300009FB7611108C0F8948C91209582238C933B
:10031000888182230AC0623051F4F8948C91322F84
:10032000309583238C938881822B888304C0F89432
:100330008C91822B8C939FBFDF91CF9108950F9367
:100340001F93CF93DF931F92CDB7DEB7282F30E0F6
:10035000F901E859FF4F8491F901E458FF4F1491D6
:10036000F901E057FF4F04910023C9F0882321F0E1
:1003700069830E943D016981E02FF0E0EE0FFF1FCD
:10038000EC55FF4FA591B4919FB7F8948C916111F2
:1003900003C01095812301C0812B8C939FBF0F90C8
:1003A000DF91CF911F910F9108951F93CF93DF930A
:1003B000182FEB0161E00E946601209711F460E0C4
:1003C00004C0CF3FD10539F461E0812FDF91CF9197
:1003D0001F910C949F01E12FF0E0E859FF4FE49149
:1003E000E330F9F048F4E130B9F0E230A1F584B53A
:1003F000806284BDC8BD34C0E630E9F0E73019F151
:10040000E43049F580918000806280938000D09331
:100410008B00C0938A0024C084B5806884BDC7BDAA
:100420001FC080918000806880938000D0938900F5
:10043000C093880015C08091B00080688093B000A0
:10044000C093B3000DC08091B00080628093B00073
:10045000C093B40005C0C038D1050CF0B5CFAFCF04
:10046000DF91CF911F910895FC0124853585F90115
:10047000E05CFF4F80819181F901EE5BFF4F2081AD
:100480003181821B930B8F7399270895FC0184851A
:100490009585FC01E05CFF4F40815181FC01EE5BE2
:1004A000FF4F208131814217530741F00190F081C5
:1004B000E02DE80FF91F808190E008958FEF9FEF06
:1004C0000895FC0184859585FC01E05CFF4F408127
:1004D0005181FC01EE5BFF4F2081318142175307B0
:1004E00079F0A081B181A80FB91F8C912081318151
:1004F0002F5F3F4F2F7333273183208390E0089580
:100500008FEF9FEF0895FC0181A1882329F0A48932
:10051000B5898C9186FFFBCF11A20895CF93DF930D
:10052000FC0126853785D901A05CBF4F8D919C9138
:10053000119701968F739927E901CE5BDF4F4881B0
:10054000598184179507D9F30D90BC91A02DA20F66
:10055000B31F6C93A685B785A05CBF4F11969C9383
:100560008E93A689B7892C9181E090E0078C02C018
:10057000880F991F0A94E2F7282B2C9381E081A31E
:100580000488F589E02D80818064808381E090E09B
:10059000DF91CF91089508951F920F920FB60F9299
:1005A00011242F933F934F938F939F93EF93FF9338
:1005B0008091C00082FD1CC04091C6008091C501A1
:1005C0009091C60101968F7399272091C7013091B0
:1005D000C8018217930771F0E091C501F091C6013F
:1005E000EB57FE4F40839093C6018093C50102C034
:1005F0008091C600FF91EF919F918F914F913F9114
:100600002F910F900FBE0F901F9018958FE191E0E2
:100610000E943402892B11F00C94CB0208951F9292
:100620000F920FB60F9211242F933F938F939F93A6
:10063000EF93FF932091810130918201809183019A
:10064000909184012817390731F48091C1008F7D82
:100650008093C10014C0E0918301F0918401EF5BAD
:10066000FE4F2081809183019091840101968F73C8
:10067000992790938401809383012093C600FF9172
:10068000EF919F918F913F912F910F900FBE0F90FF
:100690001F901895CF92DF92EF92FF92CF93DF9346
:1006A000EC016A017B01411581EE58076105710576
:1006B000F9F0EC89FD8981E090E008A002C0880F84
:1006C000991F0A94E2F7808360E079E08DE390E07F
:1006D000A70196010E94DB0421503109410951090B
:1006E0005695479537952795211580E1380798F05D
:1006F000EC89FD89108260E874E88EE190E0A70142
:1007000096010E94DB042150310941095109569597
:10071000479537952795E889F9893083EA89FB89D8
:10072000208319A2EE89FF89408181E090E09C013D
:100730000C8C02C0220F331F0A94E2F7422B408335
:10074000EE89FF8940819C010D8C02C0220F331F6E
:100750000A94E2F7422B4083EE89FF8940819C0195
:100760000E8C02C0220F331F0A94E2F7422B408303
:10077000EE89FF8920810F8C02C0880F991F0A948F
:10078000E2F7809582238083DF91CF91FF90EF90F5
:10079000DF90CF900895109222011092210188EEEF
:1007A00093E0A0E0B0E08093230190932401A09314
:1007B0002501B09326018CE091E090932001809375
:1007C0001F0185E891E090932C0180932B0181E437
:1007D00091E090932E0180932D0185EC90E0909311
:1007E000300180932F0184EC90E09093320180934C
:1007F000310180EC90E0909334018093330181ECDF
:1008000090E0909336018093350182EC90E09093D4
:1008100038018093370186EC90E090933A01809301
:10082000390184E080933B0183E080933C0187E0C1
:1008300080933D0185E080933E0181E080933F01FC
:100840000895CF92DF92EF92FF920F931F93CF9371
:10085000DF936C017A01EB01E60EF71E00E010E079
:10086000CE15DF0561F06991D601ED91FC91019003
:10087000F081E02DC6010995080F191FF1CFC801BD
:10088000DF91CF911F910F91FF90EF90DF90CF906C
:1008900008950E94A0040E94E100C6E0D3E00E94F7
:1008A000F1002097E1F30E940603F9CF1F920F9207
:1008B0000FB60F9211242F933F938F939F93AF9373
:1008C000BF938091CA019091CB01A091CC01B091CE
:1008D000CD013091C90123E0230F2D3720F401967B
:1008E000A11DB11D05C026E8230F0296A11DB11D53
:1008F0002093C9018093CA019093CB01A093CC01AE
:10090000B093CD018091CE019091CF01A091D00103
:10091000B091D1010196A11DB11D8093CE0190939C
:10092000CF01A093D001B093D101BF91AF919F911E
:100930008F913F912F910F900FBE0F901F901895A0
:10094000789484B5826084BD84B5816084BD85B5AA
:10095000826085BD85B5816085BDEEE6F0E0808171
:1009600081608083E1E8F0E0108280818260808392
:10097000808181608083E0E8F0E080818160808315
:10098000E1EBF0E0808184608083E0EBF0E0808147
:1009900081608083EAE7F0E08081846080838081E9
:1009A0008260808380818160808380818068808391
:1009B0001092C1000895A1E21A2EAA1BBB1BFD01D3
:1009C0000DC0AA1FBB1FEE1FFF1FA217B307E4072E
:1009D000F50720F0A21BB30BE40BF50B661F771F86
:1009E000881F991F1A9469F7609570958095909566
:1009F0009B01AC01BD01CF010895EE0FFF1F0590D3
:0A0A0000F491E02D0994F894FFCF63
:100A0A00090B0A0105030600000000008E022104FA
:080A1A0034026102460283026E
:00000001FF
