:100000000C945D000C9485000C9485000C94850084
:100010000C9485000C9485000C9485000C9485004C
:100020000C9485000C9485000C9485000C9485003C
:100030000C9485000C9485000C9485000C9485002C
:100040000C94DA040C9485000C9450030C949303E4
:100050000C9485000C9485000C9485000C9485000C
:100060000C9485000C94850000000007000201003C
:100070000003040600000000000000000102040864
:100080001020408001020408102001020408102002
:10009000040404040404040402020202020203032E
:1000A0000303030300000000250028002B000000CC
:1000B0000000240027002A004F0411241FBECFEFA8
:1000C000D8E0DEBFCDBF11E0A0E0B1E0E2E1FBE0AF
:1000D00002C005900D92A831B107D9F711E0A8E14F
:1000E000B1E001C01D92A53DB107E1F710E0CAEBF8
:1000F000D0E004C02297FE010E948305C83BD107CF
:10010000C9F70E94CD040C9487050C9400009C0153
:10011000255031092230310530F0AC0149505109E8
:100120004230510558F56034710591F03CF461306E
:10013000710561F06830710589F00895611581E0FD
:10014000780741F06115744039F0089581E007C0E7
:1001500083E005C084E003C085E001C082E0223076
:10016000310528F495B5987F982B95BD0895909109
:100170008100987F982B909381000895877F039743
:1001800059F560347105D9F05CF468307105E9F017
:100190006032710591F061307105F1F481E016C0B3
:1001A000611581E0780769F0611584E0780759F0FE
:1001B0006038710589F485E009C083E007C084E0F8
:1001C00005C086E003C087E001C082E09091B100E5
:1001D000987F982B9093B1000895CF92DF92EF9281
:1001E000FF920F931F93CF93DF938C01EC017C015F
:1001F00083E0E80EF11C6E0161E088810E94EA0153
:10020000888168E070E0992787FD90950E948700BB
:10021000F8018381882319F06FEF70E002C060E07D
:1002200070E02196F60180810E945902CE15DF050B
:1002300011F7DF91CF911F910F91FF90EF90DF9019
:10024000CF900895AF92BF92CF92DF92EF92FF923C
:100250000F931F93CF93DF936C018FE1E82E81E022
:10026000F82E0CE111E0C0E0D0E0AA24AA94B12C51
:10027000F7016081F8018081681799F0F6018381A8
:1002800070E0882321F0C501861B970BBC01F601A5
:10029000EC0FFD1F80810E945902F7018081F80157
:1002A00080832196FFEFEF1AFF0A0F5F1F4FC330C5
:1002B000D105F1F6DF91CF911F910F91FF90EF9053
:1002C000DF90CF90BF90AF90089540E855E260E096
:1002D00070E082E291E00E94CE0384E091E00E940F
:1002E000ED0080E091E00C94ED0082E291E00E944C
:1002F000B802892B09F444C082E291E00E94E50231
:10030000813049F410921B0110921A0110921901C8
:1003100010921801EACF2091180130911901223072
:1003200031051CF740911A0150911B01FA01E15E61
:10033000FE4F8083CA01019690931B0180931A019E
:10034000039799F6232B21F484E091E00E94220187
:100350008091180190911901019721F480E091E0BA
:100360000E942201809118019091190101969093A9
:1003700019018093180110921B0110921A01B5CF38
:100380000895833081F028F4813099F08230A1F013
:1003900008958630A9F08730B9F08430D1F4809187
:1003A00080008F7D03C0809180008F7780938000D4
:1003B000089584B58F7702C084B58F7D84BD08957C
:1003C0008091B0008F7703C08091B0008F7D8093C3
:1003D000B0000895CF93DF9390E0FC01E458FF4F05
:1003E0002491FC01E057FF4F8491882349F190E06C
:1003F000880F991FFC01E255FF4FA591B4918C55D0
:100400009F4FFC01C591D4919FB7611108C0F8942A
:100410008C91209582238C93888182230AC062303C
:1004200051F4F8948C91322F309583238C938881EA
:10043000822B888304C0F8948C91822B8C939FBF6D
:10044000DF91CF9108950F931F93CF93DF931F9266
:10045000CDB7DEB7282F30E0F901E859FF4F84917E
:10046000F901E458FF4F1491F901E057FF4F04914F
:100470000023C9F0882321F069830E94C1016981AA
:10048000E02FF0E0EE0FFF1FEC55FF4FA591B49168
:100490009FB7F8948C91611103C01095812301C01E
:1004A000812B8C939FBF0F90DF91CF911F910F9164
:1004B00008951F93CF93DF93182FEB0161E00E9403
:1004C000EA01209711F460E004C0CF3FD10539F470
:1004D00061E0812FDF91CF911F910C942302E12FD6
:1004E000F0E0E859FF4FE491E330F9F048F4E130EF
:1004F000B9F0E230A1F584B5806284BDC8BD34C0D6
:10050000E630E9F0E73019F1E43049F580918000F8
:10051000806280938000D0938B00C0938A0024C0B7
:1005200084B5806884BDC7BD1FC08091800080688D
:1005300080938000D0938900C093880015C080917B
:10054000B00080688093B000C093B3000DC080916C
:10055000B00080628093B000C093B40005C0C03882
:10056000D1050CF0B5CFAFCFDF91CF911F9108959A
:10057000FC0124853585F901E05CFF4F8081918184
:10058000F901EE5BFF4F20813181821B930B8F734A
:1005900099270895FC0184859585FC01E05CFF4F57
:1005A00040815181FC01EE5BFF4F20813181421778
:1005B000530741F00190F081E02DE80FF91F808191
:1005C00090E008958FEF9FEF0895FC018485958555
:1005D000FC01E05CFF4F40815181FC01EE5BFF4F6D
:1005E000208131814217530779F0A081B181A80F92
:1005F000B91F8C91208131812F5F3F4F2F7333279B
:100600003183208390E008958FEF9FEF0895FC01E0
:1006100081A1882329F0A489B5898C9186FFFBCF1D
:1006200011A20895CF93DF93FC0126853785D90168
:10063000A05CBF4F8D919C91119701968F73992764
:10064000E901CE5BDF4F4881598184179507D9F3C3
:100650000D90BC91A02DA20FB31F6C93A685B785FA
:10066000A05CBF4F11969C938E93A689B7892C915D
:1006700081E090E0078C02C0880F991F0A94E2F78E
:10068000282B2C9381E081A30488F589E02D8081BB
:100690008064808381E090E0DF91CF910895089598
:1006A0001F920F920FB60F9211242F933F934F93E7
:1006B0008F939F93EF93FF938091C00082FD1CC0A6
:1006C0004091C6008091C8019091C90101968F7335
:1006D00099272091CA013091CB018217930771F0BD
:1006E000E091C801F091C901E857FE4F4083909313
:1006F000C9018093C80102C08091C600FF91EF91AB
:100700009F918F914F913F912F910F900FBE0F901E
:100710001F90189582E291E00E94B802892B11F097
:100720000C944F0308951F920F920FB60F9211244D
:100730002F933F938F939F93EF93FF932091840187
:1007400030918501809186019091870128173907A2
:1007500031F48091C1008F7D8093C10014C0E0917D
:100760008601F0918701EC5BFE4F2081809186012C
:100770009091870101968F739927909387018093B9
:1007800086012093C600FF91EF919F918F913F9139
:100790002F910F900FBE0F901F901895CF92DF9260
:1007A000EF92FF92CF93DF93EC016A017B01411539
:1007B00081EE580761057105F9F0EC89FD8981E04A
:1007C00090E008A002C0880F991F0A94E2F7808386
:1007D00060E079E08DE390E0A70196010E945F055B
:1007E000215031094109510956954795379527956B
:1007F000211580E1380798F0EC89FD89108260E8C6
:1008000074E88EE190E0A70196010E945F052150F7
:100810003109410951095695479537952795E8893A
:10082000F9893083EA89FB89208319A2EE89FF893F
:10083000408181E090E09C010C8C02C0220F331FAC
:100840000A94E2F7422B4083EE89FF8940819C01A4
:100850000D8C02C0220F331F0A94E2F7422B408313
:10086000EE89FF8940819C010E8C02C0220F331F4C
:100870000A94E2F7422B4083EE89FF8920810F8C96
:1008800002C0880F991F0A94E2F780958223808323
:10089000DF91CF91FF90EF90DF90CF90089510926D
:1008A00025011092240188EE93E0A0E0B0E080934F
:1008B000260190932701A0932801B09329018CE091
:1008C00091E0909323018093220188E891E0909336
:1008D0002F0180932E0184E491E090933101809365
:1008E000300185EC90E0909333018093320184ECE9
:1008F00090E0909335018093340180EC90E09093E8
:1009000037018093360181EC90E090933901809318
:10091000380182EC90E090933B0180933A0186ECA1
:1009200090E090933D0180933C0184E080933E01F0
:1009300083E080933F0187E08093400185E08093CE
:10094000410181E0809342010895CF92DF92EF92BE
:10095000FF920F931F93CF93DF936C017A01EB010A
:10096000E60EF71E00E010E0CE15DF0561F069919C
:10097000D601ED91FC910190F081E02DC601099521
:10098000080F191FF1CFC801DF91CF911F910F916F
:10099000FF90EF90DF90CF9008950E9424050E9471
:1009A0006501CAE8D3E00E9475012097E1F30E9437
:1009B0008A03F9CF1F920F920FB60F9211242F9333
:1009C0003F938F939F93AF93BF938091CD0190916D
:1009D000CE01A091CF01B091D0013091CC0123E0A4
:1009E000230F2D3720F40196A11DB11D05C026E867
:1009F000230F0296A11DB11D2093CC018093CD0140
:100A00009093CE01A093CF01B093D0018091D101FA
:100A10009091D201A091D301B091D4010196A11D72
:100A2000B11D8093D1019093D201A093D301B093D3
:100A3000D401BF91AF919F918F913F912F910F90D2
:100A40000FBE0F901F901895789484B5826084BD76
:100A500084B5816084BD85B5826085BD85B58160C2
:100A600085BDEEE6F0E0808181608083E1E8F0E022
:100A70001082808182608083808181608083E0E851
:100A8000F0E0808181608083E1EBF0E08081846030
:100A90008083E0EBF0E0808181608083EAE7F0E032
:100AA0008081846080838081826080838081816096
:100AB00080838081806880831092C1000895A1E2C4
:100AC0001A2EAA1BBB1BFD010DC0AA1FBB1FEE1FC8
:100AD000FF1FA217B307E407F50720F0A21BB30B13
:100AE000E40BF50B661F771F881F991F1A9469F78F
:100AF00060957095809590959B01AC01BD01CF01EB
:100B00000895EE0FFF1F0590F491E02D0994F894DD
:020B1000FFCF15
:100B1200090B0A0105030600000000001203A504E8
:080B2200B802E502CA02070354
:00000001FF
